:020000040800F2
:10000000B8040020BD1A0008991A00089B1A0008BD
:100010009D1A00089F1A0008A11A0008000000009D
:10002000000000000000000000000000A31A00080B
:10003000A51A000800000000A71A0008A91A000865
:10004000D91A0008DD1A0008E11A0008E51A0008AC
:10005000E91A0008ED1A0008F11A0008F51A00085C
:10006000F91A0008FD1A0008011B0008051B00080A
:10007000091B00080D1B0008111B0008151B0008B8
:10008000191B00081D1B0008211B0008251B000868
:10009000291B00082D1B0008311B0008351B000818
:1000A000391B00083D1B0008411B0008451B0008C8
:1000B000491B00084D1B0008511B0008551B000878
:1000C000591B00085D1B0008611B0008651B000828
:1000D000691B00086D1B0008711B0008751B0008D8
:1000E000791B00087D1B0008811B0008851B000888
:1000F000891B00088D1B0008911B0008951B000838
:10010000991B00089D1B0008A11B0008A51B0008E7
:10011000A91B0008AD1B0008B11B0008B51B000897
:10012000B91B0008BD1B0008C11B0008C51B000847
:10013000C91B0008CD1B0008D11B0008D51B0008F7
:10014000D91B0008DD1B0008E11B0008E51B0008A7
:10015000E91B0008ED1B0008F11B0008F51B000857
:10016000F91B0008FD1B0008011C0008051C000805
:10017000091C00080D1C0008000000000000000021
:10018000111C0008151C000838B5040001D101201D
:1001900032BD00F02DF918B900F026F900F00AFC84
:1001A000FFE702206870211D206800F00AFA012094
:1001B0002873A870E87028716871A871E8712872B6
:1001C0006872A872E8726870002032BD38B5040009
:1001D00001D1012032BD00F00BF918B900F004F98B
:1001E00000F04AFCDDE770B500F0F4F809B90278D8
:1001F0000FE0042908BF42780BD0082908BF827895
:1002000007D00C2908BFC27803D010290CBF02798F
:100210004279012A01D0012070BD11B90222027079
:1002200014E0042902D1022242700FE0082902D111
:10023000022282700AE00C2902D10222C27005E07B
:10024000102907BF022202710223437100F044F813
:1002500000F04BF818BF904208D088421FBFDFF86B
:100260008051A842DFF87C61B04201D100F01FF854
:1002700024689C4218BFB4F1804F0BD000F024F8E2
:100280001CBF504B9C4205D000F01BF81CBF944291
:100290008C4208D100F010F818BFB1F5803F04D0AF
:1002A00000F01EF801E000F012F8002070BD456C6F
:1002B00045F4004545647047A16848480140062957
:1002C00070474148844270473D48844270472168E6
:1002D00041F00101216070472068012200F045BB18
:1002E000206840F00100206070472068334B374A97
:1002F00037499842704770B500F047F800F04BF866
:100300001CBF324EB24200F03BF809D000F031F889
:100310001FBFDFF8CC60B242DFF8C8309A4206D186
:10032000166A0E4204BF136A034200F038F800F068
:1003300023F804BF116A014200F037F814B9012113
:10034000017014E0042C02D1012141700FE0082C4F
:1003500002D1012181700AE00C2C02D10121C1706F
:1003600005E0102C07BF012101710122427100201C
:1003700070BD174B9A4270472A68136A0B42704748
:1003800040F2444041F21111704705460C4628687E
:10039000002200F0EABA2A68084B9A42704703D15B
:1003A000536C23F400435364704703D11068400832
:1003B0004000106005F13E0070470000002C014035
:1003C0000004004000080040000C004000340140E0
:1003D00000400140044604F13E0070470700010060
:1003E0000044014000480140002129702046704728
:1003F00004F13C056878704738B500F07EF801D10B
:10040000022032BD012084F83C0052B1042A19D0E8
:10041000082A29D00C2A38D0102A48D0142A57D0BC
:1004200067E0206800F023F92168886940F008003F
:100430008861886920F0040088618A69286902431C
:100440008A6156E0206800F053F92068816941F420
:1004500000618161816921F48061816181692A691A
:1004600041EA0221816144E0206800F07AF92168C4
:10047000C86940F00800C861C86920F00400C8617C
:10048000CA6928690243CA6133E0206800F0A1F913
:100490002068C16941F40061C161C16921F48061D2
:1004A000C161C1692A6941EA0221C16121E0206874
:1004B00000F0B6F92168486D40F008004865486DC5
:1004C00020F0040048654A6D286902434A6510E03F
:1004D000206800F0CFF92068416D41F4006141656A
:1004E000416D21F480614165416D2A6941EA022133
:1004F0004165002084F83C0032BD04460D4694F866
:100500003C000128704738B500F04FF801D10220B7
:1005100032BD0120207002226270DFF8B4032A6825
:100520009368034093600868020018BF10282DD01C
:10053000202818BF302829D0402823D0502816D092
:10054000602818D0702803D0B0F5005F07D021E0F4
:1005500000F026F82868816841F0770105E000F096
:100560001FF82868816841F48041816012E000F042
:1005700013F850210BE0CA684968286800F0D1F9E7
:10058000602104E000F008F8402100E001462868FE
:1005900000F0D9F90FE00000CA6849682868B1E1A5
:1005A000CB684A6889682868D5E1054605F13C04AE
:1005B0002078012870470120607000212170002000
:1005C00032BD2DE9F043DFF80C73D0F800C0DFF83E
:1005D0000833DFF80843DFF80853DFF80863DFF873
:1005E00008E3DFF80883DFF80893B84218BFB0F1DA
:1005F000804F07D0484518BF404503D0704518BF0D
:10060000B0420ED14A68B8422CF0700C18BFB0F15D
:10061000804F42EA0C0C0CD048451CBF4045704549
:1006200007D0B04218BFA84203D0A04218BF9842DA
:1006300004D1CA682CF4407C42EA0C0C4A692CF0C4
:10064000800C42EA0C020260B8428A68C26218BF9B
:10065000B0420A68826204D0A8421CBFA0429842FD
:1006600001D10969016301224261BDE8F0832DE9EE
:10067000F041026ADFF85C82DFF868E2DFF85C7262
:10068000DFF85CC2520852000262066A446885695B
:10069000DFF860220B6826F0020615408A681643D0
:1006A0001D43404518BF70458B4B04D060451CBFAF
:1006B000B84298420DD1CA6826F008061643404554
:1006C00018BF704526F0040605D0604518BFB84233
:1006D00001D0984205D14B698A6924F440741C43C7
:1006E000144344608561496841630662BDE8F08156
:1006F000F0B5026A22F010020262056A436884695A
:100700007D4A0E6814408A6844EA062425F02005D4
:1007100045EA02156F4E734AB04218BF904208D1A5
:10072000CF6825F0800545EA0715B04225F0400561
:100730000AD090421CBF6A4A904205D0674EB04230
:100740001CBF654A904206D14E698A6923F4406312
:10075000164343EA86034360846149688163056206
:10076000F0BDF0B5026A634B22F480720262066A41
:100770004468C5690A6826F400761D408B6846EA1D
:1007800003261543534B574A984218BF904208D14D
:10079000CF6826F4006646EA0726984226F480666B
:1007A0000AD090421CBF4E4A904205D04B4B984213
:1007B0001CBF494A904206D14B698A6924F44054CF
:1007C000134344EA03144460C5614968C163066287
:1007D000F0BD70B5026A22F480520262036A446876
:1007E000C569454A00F06DF823F4005343EA02332B
:1007F000B0421CBF3B4A904207D0394EB0421FBFA7
:10080000364A9042344EB04204D14A6924F48044BE
:1008100044EA82144460C56149680164036270BDA2
:1008200070B5026A354B22F480320262046A456870
:10083000466D0A681E4016438B68264A24F400342D
:1008400044EA034490421CBF264B984207D0244AF6
:1008500090421FBF214B98421F4A904204D14A69DF
:1008600025F4803545EA022545604665496881657D
:10087000046270BD70B5026A22F480120262036ADB
:100880004468456D1E4A00F01CF823F4001343EA47
:100890000253B0421CBF134A904207D0104EB042E0
:1008A0001FBF0E4A90420C4EB04204D14A6924F454
:1008B000802444EA8224446045654968C165036236
:1008C00070BD0E68154045EA06258A68014E7047DE
:1008D0008800FEFF002C0140004801400044014018
:1008E0000040014000340140000C0040000800407E
:1008F000000400408CFFFEFFFF8CFFFE8FFFFEFF19
:10090000FF8FFFFE10B5036A046A64086400046286
:1009100023F00A03846924F0F00444EA0214846199
:100920002EE010B5036A23F0100303628369046AA2
:1009300023F4704343EA023324F0A004836144EAC1
:100940000114046210BD826822F07002114341F06C
:1009500007018160704710B5846824F47F44214307
:10096000114341EA0321816010BD10B501F01F0160
:10097000036A01248C40A343036202FA01F1036A73
:100980001943016210BD0000374881B0816841F011
:1009900001018160816801F0010100910099026804
:1009A00042F080520260006800F080500090009891
:1009B00001B0704781B000682B49B0F1804F07D17A
:1009C000086840F001000860096801F0010109E0D1
:1009D000264A904208D1086840F002000860096881
:1009E00001F002010091009801B0704710B586B087
:1009F000044614220021684600F03FF820681C4994
:100A0000B0F1804F10D1086840F001000860022268
:100A1000096801F0010105912021059800F01DF8F9
:100A20004FF09040012112E0104A904213D1086823
:100A300040F0040008600222096801F004010591F9
:100A40004FF4007105980B4800F007F8022104915B
:100A5000694600F01DF806B010BD0091019200211A
:100A600002910391704700005810024000040040BA
:100A70004C10024000080048704710B5044610466C
:100A80000A460146204600F0F3F8204610BD00005B
:100A90002DE9F84F4FF000096C4A6D4B4FF00F08ED
:100AA00005460E4634E06B4CA54214BF07240624CD
:100AB0008C4069493C4341F82C40C143146801EA29
:100AC000040C7468E40348BF40EA0C0CC2F800C090
:100AD000546801EA040C7468A40348BF40EA0C0C93
:100AE000C2F804C0946801EA040C7468E40248BFC8
:100AF00040EA0C0CC2F808C0D46801EA040C716822
:100B0000890248BF40EA0C0CC2F80CC009F1010987
:100B1000316831FA09F000F09780012404FA09F4F1
:100B200014EA0100F2D04FEA490C032101FA0CF15A
:100B30006FEA010E7168E443012918BF022903D04E
:100B4000112918BF122910D1A968F7680EEA01010E
:100B500007FA0CF73943A96069687768C7F300178B
:100B6000214007FA09F739436960716801F003070A
:100B7000032F07D1EF6AC1F3C0013C4001FA09F12C
:100B80000C43EC62E968B4680EEA010104FA0CF463
:100B90002143E9604FEA89017468022C18BF122CC6
:100BA00012D14FEAD90405EB840401F01C07D4F8F4
:100BB00020A008FA07FB2AEA0B0AD6F810B00BFAB5
:100BC00007F747EA0A0727622C680EEA0407347918
:100BD00004F0030404FA0CF43C432C607468E40051
:100BE00094D51C6844F001041C604FEA990C1C6801
:100BF00004F00104009401F00C01009C164C54F820
:100C00002C4008FA01F724EA0707B5F1904F08BF16
:100C1000002418D0114CA54208BF012413D0104C59
:100C2000A54208BF02240ED00E4CA54208BF0324E3
:100C300009D00D4CA54208BF042404D00B4CA5429A
:100C40007FF431AF052433E7BDE8F18F00040140A4
:100C500060100240001800480800014000040048ED
:100C600000080048000C004800100048001400482C
:100C700062F30F2262F31F42401810F0030308D002
:100C8000C91A1FD3DB0748BF00F8012D28BF20F881
:100C9000022D130030B414461546103928BF20E940
:100CA0003C00FAD8490728BF20E90C0048BF40F8AB
:100CB000042D890028BF20F8022D48BF00F8012D1F
:100CC00030BC7047C91818BF00F8012DCB0728BFEA
:100CD00000F8012D704700002DE9FC47050065D0A4
:100CE000DFF87876DFF88466BC68F86800F00308FF
:100CF0002878C10604F00C0448D524B10C2C08BF98
:100D0000B8F1010F2CD13868810702D5A8690028F5
:100D10004CD0396808074EBF396871680909286ADC
:100D200001F0F001814206D200F0DEFA00283DD148
:100D300000F0F5F907E000F0F2F924B9286A00F0B4
:100D4000D3FA002832D100F086FABA6800F079FAB6
:100D5000DFF81006006800F01DFB010016D0D8E196
:100D6000A86928B3396841F00101396000F034FB0B
:100D700081463868810707D400F02EFBA0EB0900FC
:100D80000328F6D30320C4E100F0C9F92878C1078D
:100D900056D5082C04D00C2C08BFB8F1030F18D17D
:100DA000386881034CD56868002849D10120B0E13A
:100DB000386840084000386000F00EFB8146386813
:100DC0008107E3D500F008FBA0EB09000328F6D368
:100DD000D8E76868B0F5803F04D1386840F48030C7
:100DE000386011E0B0F5A02F386806D140F48020BB
:100DF0003860396841F4803105E020F48030386093
:100E0000396821F480213960686860B100F0E4FA43
:100E100081463868810313D400F0DEFAA0EB0900A4
:100E20006528F6D3AEE700F0D7FA8146386881032B
:100E300006D500F0D1FAA0EB09006528F6D3A1E7AA
:100E40002878810713D5042C04D00C2C08BFB8F1E6
:100E5000020F22D13868410502D5E8680028A5D0E4
:100E60007868296920F0F85040EA016078602878B5
:100E7000010743D568690028706830D040F0010050
:100E8000706000F0A9FA80467068810736D400F0DF
:100E9000A3FA00F040F9F7D374E7E86878B139684D
:100EA00041F48071396000F097FA80463868410556
:100EB000D6D400F091FA00F02EF9F7D362E7386843
:100EC00020F48070386000F087FA80463868410569
:100ED000CDD500F081FA00F01EF9F7D352E74008B3
:100EE0004000706000F078FA80467068810705D590
:100EF00000F072FA00F00FF9F7D343E728784107C2
:100F000067D5B86DC1004FF000080AD4B86D40F045
:100F10008050B8654FF00108B86D00F08050009027
:100F20000098DFF84C94D9F80000C10513D4D9F823
:100F3000000040F48070C9F8000000F04DFA8246CD
:100F4000D9F80000C10506D400F046FAA0EB0A006B
:100F50000328F5D316E7A868012804D1306840F0CB
:100F60000100306010E00528306806D140F0040030
:100F70003060316841F0010105E040084000306018
:100F8000316821F004013160A86841F2893960B10B
:100F900000F022FA82463068810713D400F01CFA70
:100FA000A0EB0A004845F6D3ECE600F015FA8246BD
:100FB0003068810706D500F00FFAA0EB0A0048451B
:100FC000F6D3DFE6B8F1000F03D0B86D20F0805003
:100FD000B865A86A002800F09B80022878D1F868DC
:100FE000EA6A00F00301914201BF00F070012A6B30
:100FF000521EB1EB021F1ED16A6B00F4FE41B1EB31
:10100000022F18D1A96B07290CBF0021012100F480
:1010100000328A420FD1EA6B520800F4C001521E1E
:10102000B1EB425F07D1296C490800F0C060491E4E
:10103000B0EB416F48D00C2C4BD03868410101D443
:101040003868C1003FF5B2AE386820F08070386073
:1010500000F0C2F904463868810105D500F0BCF9FA
:10106000001B0328F7D38DE6F868DFF80813EA6A57
:101070000840296B1043491E40EA0110EA6B696B76
:10108000520840EA0120296C521E490840EA4250A9
:10109000491E40EA4160A96B090940EA4140F860F5
:1010A000386840F080703860F96841F08071F9600C
:1010B00000F092F904463868810129D400F08CF9D7
:1010C000001B0328F7D35DE63868810120D4E7E7E9
:1010D0000C2C3FF46BAE386820F0807038603968B3
:1010E00011F0205F03D1F86880088000F860F9688B
:1010F000DFF884020140F96000F06EF904463868B8
:10110000810105D500F068F9001B0328F7D339E603
:101110000020BDE8F687A0EB080003287047386878
:1011200040F0080038603968286A21F0F001014376
:1011300039607968E86921F47F4141EA00217960EA
:1011400070472DE9F0410400884658D0DFF82C6242
:10115000306800F00700404509D23168C90848EA04
:10116000C1013160306800F00700404547D1207868
:10117000DFF8E851C1072AD56068032802D1296841
:101180008A0108E0022802D129688A0303E00028C6
:10119000296802D18A0702D431E04A052FD5A9680F
:1011A000890840EA8100A86000F016F90746A8689F
:1011B000616800F00C00B0EB810F08D000F00CF972
:1011C000C01B41F289318842F1D3032037E02078F7
:1011D000810705D5AA68A06822F0F0020243AA6040
:1011E000316801F0070188450BD23068C00848EA31
:1011F000C0003060316801F00701414501D0012095
:101200001DE02078410705D5AA68E06822F4E06275
:101210000243AA602178080706D5A968206921F44D
:10122000605141EAC001A96000F015F8AA6800F019
:1012300008F8BDE8F0414B48006800F0ABB8BDE8E5
:10124000F0814F49C2F30312895C454A01F01F0146
:10125000C8401060704770B5404A4A4B9068D668E5
:101260000025002110F00C0006F00306464C03D0C8
:101270000C2812D1012E1AD115682E0704D43A4D2C
:101280002E68C6F3032502E01568C5F303153F4E2B
:1012900056F8255048B9294624E0042808BF2146BD
:1012A00020D008281ED119461CE00C281AD1D0687D
:1012B00000F00300022803D0032808BF1D4600E009
:1012C0002546D168D068D268C0F306204543C1F3F3
:1012D0000210C2F34161401C491CB5FBF0F049000B
:1012E000B0FBF1F1084670BD7CB5294E054630686B
:1012F0000024C10002D500F075F80EE0306840F01F
:1013000080503060316801F080510091009800F009
:1013100069F8316821F080513160B0F5007F04D167
:10132000802D0CD9A12D09D304E0802D88BF032482
:1013300005D801D1022402E0702D00D101240F480C
:101340000168C90844EAC1010160006800F00700B3
:10135000A04201D0012076BD002076BD00100240E1
:10136000B0000020AC000020941002409010024019
:10137000007000408C809DF9FFFFEEFE00200240CF
:101380007C19000800127A000024F400C419000837
:101390005810024070B50E4E044630780025A0B1BA
:1013A0004FF47A710B4AB1FBF0F11068B0FBF1F029
:1013B00000F092F848B9102C07D2002221464FF0D5
:1013C000FF3000F06BF8B46000E00125284670BDE6
:1013D000A4000020B000002001484068704700BF12
:1013E000A4000020DFF87400006800F4C0607047BB
:1013F00010B5DFF86810B0F5007F086800F4C06031
:1014000019D1B0F5007F1FD00868DFF85420DFF84D
:10141000544020F4C06040F4007000F017F800E081
:10142000401E4A69530501D50028F9D14869410594
:101430000AD5032010BDB0F5806F05D0086820F4F0
:10144000C06040F480600860002010BD0860322059
:1014500013684343B3FBF4F0401C70470070004036
:10146000B000002040420F000901020002D42448CD
:1014700081547047234B02F00F021A4402F8041CF7
:101480007047214B19684FF6FF020002114000F42B
:10149000E06008431D4908431860704770B51A4B57
:1014A0001C68C4F302230124C3F10705052D2EBFD8
:1014B0000F2504FA05F56D1E1E1D072E34BF0023EF
:1014C000DB1E2940994004FA03F3BDE870405B1E1F
:1014D0001A401143C8E7000010B5401EB0F1807FEC
:1014E00001D3012010BD0A4C60600F214FF0FF3086
:1014F000FFF7BAFF0021A16007202060002010BD87
:1015000000E400E018ED00E00CED00E00000FA055A
:1015100010E000E02DE9F8438EB000F0A1F900F0F2
:1015200068F9A648A64C016841F0010101604FF43A
:101530007A65026802F0010200920099026842F0A6
:10154000040202601022006800F0040000900021F4
:1015500000980AA8FFF791FA00F07AF900F03FF935
:101560004FF08040E060002121616161E1616162D2
:10157000A56104F10C00FEF707FE08B100F06DF95B
:101580004FF480560A960AA904F10C00FEF7BBFF3F
:1015900008B100F062F904F10C00FEF717FE08B183
:1015A00000F05BF900210091029104F10C00694602
:1015B00000F066F908B100F050F9602103910022B3
:1015C000002105914FF4FA670792049703A904F1EB
:1015D0000C00FEF711FF08B100F03FF904F10C0018
:1015E000FFF704FA102200210AA8FFF746FA00F0DC
:1015F0002FF900F0F4F87348A0650021E165216639
:10160000A1662167656604F15800FEF7BDFD08B1CB
:1016100000F023F90A960AA904F15800FEF773FFB7
:1016200008B100F01AF904F15800FEF7CFFD08B137
:1016300000F013F900210091029104F1580069466D
:1016400000F01EF908B100F008F960210391049739
:101650000021059107910C2203A904F15800FEF71F
:10166000CBFE08B100F0F9F804F15800FFF7BEF91D
:1016700000F0BAF800F0AEF86FF018056FF06306EE
:101680006FF0C70740F6B83801E000F0A3F80F206C
:1016900000F040F921786088552913D1322808BF1D
:1016A000192108D0B0F57A7F08BF642103D0B0F5C6
:1016B000FA6F01D1C821A18000F086F8404514D10D
:1016C000442011E0404508BFA78008D0B0F5FA6F6C
:1016D00008BFA68003D0B0F57A7F08BFA58000F0D0
:1016E00073F8322801D155202070B4F802900021FF
:1016F00004F10C00FEF7FFFD1C2200F0AAF86021A7
:1017000000910022002102910492CDF804906946D4
:1017100004F10C00FEF770FE90B900F065F86178F6
:10172000E088552918D164280CD119212181B4F9F8
:101730000810081881B2414523D14423637020E08A
:1017400072B6FEE7B0F57A7F08BF6421EED0B0F53F
:10175000FA6FECD1C821E9E7404508BF278108D0DE
:10176000B0F5FA6F08BF268103D0B0F57A7F08BFC5
:101770002581B4F90810081881B2642904BF5522E4
:101780006270E0800C21B4F8069004F15800FEF776
:10179000B2FD1C2200F05DF860210091CDF80490AC
:1017A0000021029104910C22694604F15800FEF7D1
:1017B00023FE00283FF469AF72B6FEE74C100240EA
:1017C0000000002000040040B4F9041008186080F4
:1017D00080B270470C2104F15800FEF704BD1C22B2
:1017E000002103A8FFF749B9002104F10C00FEF71E
:1017F000FABC80B596B04422002105A8FFF73DF958
:10180000142200F026F84FF40070FFF7F1FD08B144
:1018100000F023F801210B91102005900022602197
:101820000C920D910F9205A8FFF756FA08B100F03F
:1018300014F80F200090002101910291039104916E
:101840006846FFF77EFC08B100F007F817B000BD4E
:101850000C2200216846FFF710B972B6FEE70000BF
:10186000032010B5FFF70DFE0F20FFF793FD0024B6
:10187000002814BF0124FFF787F8204610BD0000A0
:10188000F0B500F13C042278012A01D10220F0BD1C
:1018900001222270022363700668DFF868E077682F
:1018A000DFF864C0B568764518BF664503D14B685C
:1018B00027F470071F430A6827F070071743776003
:1018C0000268724518BFB2F1804F0CD00C488242BA
:1018D0001CBF0E4B9A4206D0084882421EBF62458A
:1018E0000B4B9A4204D1886825F08005054395602A
:1018F0000121617000202070F0BD0000000C00404C
:1019000000040040002C0140003401400008004069
:101910000040014038B50446FFF75EFD14F1010FA9
:10192000054602D0044801786418FFF755FD401BB6
:10193000A042FAD331BD00BFA40000200C480168CA
:1019400041F47001016000220A49086840F001007A
:1019500008608A604FF480520B68074803400B60B0
:10196000CA6000200B6823F480230B6088617047F5
:1019700088ED00E000100240FFFFF6EA00000000E2
:1019800000000000010203040607080930B50168E1
:1019900084684218416802EB5103C90703D54C44DF
:1019A00001E0491C05D19A420AD012F9011B12F834
:1019B000015B002904F8015BF3D4491EF7D5F2E777
:1019C0000C3030BDA0860100400D0300801A0600D7
:1019D00000350C0040420F0080841E0000093D00CD
:1019E00000127A000024F40000366E010048E8017D
:1019F000006CDC0210B5074979441831064C7C4470
:101A0000163404E00A68081D114488470146A142C3
:101A1000F8D110BD2C000000380000004EF68851AF
:101A2000CEF20001086840F470000860BFF34F8FE9
:101A3000BFF36F8F4FF00070E1EE100A70470000A7
:101A40004DFFFFFFD4010000320000000000002025
:101A500000F00DF8002801D0FFF7CCFFAFF30080B5
:101A60000020AFF30080FFF755FD00F002F80120E1
:101A7000704700F001B800000746384600F002F851
:101A8000FBE7000080B5AFF30080024A1100182088
:101A9000ABBEFBE726000200FEE7FEE7FEE7FEE73F
:101AA000FEE770477047704700F000B80248416891
:101AB00002788A1842607047A400002001488047DD
:101AC000014800473D190008CD1A0008AFF3008017
:101AD000FFF7A4FFFFF7BCFFFFF7FEBFFFF7FEBF56
:101AE000FFF7FEBFFFF7FEBFFFF7FEBFFFF7FEBF2A
:101AF000FFF7FEBFFFF7FEBFFFF7FEBFFFF7FEBF1A
:101B0000FFF7FEBFFFF7FEBFFFF7FEBFFFF7FEBF09
:101B1000FFF7FEBFFFF7FEBFFFF7FEBFFFF7FEBFF9
:101B2000FFF7FEBFFFF7FEBFFFF7FEBFFFF7FEBFE9
:101B3000FFF7FEBFFFF7FEBFFFF7FEBFFFF7FEBFD9
:101B4000FFF7FEBFFFF7FEBFFFF7FEBFFFF7FEBFC9
:101B5000FFF7FEBFFFF7FEBFFFF7FEBFFFF7FEBFB9
:101B6000FFF7FEBFFFF7FEBFFFF7FEBFFFF7FEBFA9
:101B7000FFF7FEBFFFF7FEBFFFF7FEBFFFF7FEBF99
:101B8000FFF7FEBFFFF7FEBFFFF7FEBFFFF7FEBF89
:101B9000FFF7FEBFFFF7FEBFFFF7FEBFFFF7FEBF79
:101BA000FFF7FEBFFFF7FEBFFFF7FEBFFFF7FEBF69
:101BB000FFF7FEBFFFF7FEBFFFF7FEBFFFF7FEBF59
:101BC000FFF7FEBFFFF7FEBFFFF7FEBFFFF7FEBF49
:101BD000FFF7FEBFFFF7FEBFFFF7FEBFFFF7FEBF39
:101BE000FFF7FEBFFFF7FEBFFFF7FEBFFFF7FEBF29
:101BF000FFF7FEBFFFF7FEBFFFF7FEBFFFF7FEBF19
:101C0000FFF7FEBFFFF7FEBFFFF7FEBFFFF7FEBF08
:101C1000FFF7FEBFFFF7FEBF02554432FD0001B8DB
:101C20000B8100E3000001F9000010FC0002093DF7
:011C300000B3
:0400000508001ACD08
:00000001FF
